:020000040800F2
:10000000D0070020590100088B0100088D0100086D
:100010008F01000891010008930100080000000012
:100020000000000000000000000000009501000832
:100030009701000800000000990100089B010008DA
:100040009D0100089D0100089D0100089D01000818
:100050009D0100089D0100089D0100089D01000808
:100060009D0100089D0100089D0100089D010008F8
:10007000C5080008C91000089D0100089D0100087E
:10008000F91000089D0100089D0100089D0100086D
:100090009D010008F90F00089D0100089D0100085E
:1000A0009D0100089D0100089D0100089D010008B8
:1000B0009D01000800F002F800F03EF80CA030C8E6
:1000C000083824182D18A246671EAB4654465D46D4
:1000D000AC4201D100F030F87E460F3E0FCCB64660
:1000E0000126334200D0FB1AA246AB4633431847E1
:1000F000D0250000F0250000103A02D378C878C15E
:10010000FAD8520701D330C830C101D504680C6059
:10011000704700000023002400250026103A01D378
:1001200078C1FBD8520700D330C100D50B607047AF
:100130001FB51FBD10B510BD00F091FB1146FFF7B4
:10014000F7FF01F037FD00F0A9FB03B4FFF7F2FF62
:1001500003BC00F0AFFB0000144880F3088814488B
:100160000168090E134A9142FFD1134813490160F7
:100170001348144901601448124901600E4813499C
:1001800001601348804713480047FEE7FEE7FEE79B
:10019000FEE7FEE7FEE7FEE7FEE7FEE7FEE700001C
:1001A0000D480E490E4A0F4B70470000D007002043
:1001B000040000001F0000001C10024000000004AA
:1001C00018680040120000001C6800400000000099
:1001D000010F0008B5000008D0010020D007002062
:1001E000D0030020D0030020002203098B422CD32F
:1001F000030A8B4211D300239C464EE003460B4377
:100200003CD4002243088B4231D303098B421CD3D8
:10021000030A8B4201D394463FE0C3098B4201D3CA
:10022000CB01C01A524183098B4201D38B01C01A02
:10023000524143098B4201D34B01C01A5241030979
:100240008B4201D30B01C01A5241C3088B4201D328
:10025000CB00C01A524183088B4201D38B00C01AD5
:10026000524143088B4201D34B00C01A5241411AFC
:1002700000D201465241104670475DE0CA0F00D0DF
:100280004942031000D34042534000229C460309D8
:100290008B422DD3030A8B4212D3FC22890112BA5E
:1002A000030A8B420CD3890192118B4208D3890136
:1002B00092118B4204D389013AD0921100E089094E
:1002C000C3098B4201D3CB01C01A524183098B422F
:1002D00001D38B01C01A524143098B4201D34B0118
:1002E000C01A524103098B4201D30B01C01A52417B
:1002F000C3088B4201D3CB00C01A524183088B4202
:1003000001D38B00C01A5241D9D243088B4201D38A
:100310004B00C01A5241411A00D201466346524175
:100320005B10104601D34042002B00D54942704774
:1003300063465B1000D3404201B50020C046C04672
:1003400002BD70477047704730B50346CA02400D82
:100350001043164D164C0A1502D02043002A06DB26
:10036000AA1A002A12DDD040FF2A0BDC30BD52054C
:10037000520D01D140004008AA1A07D4D040404293
:10038000FF2A01DD002030BD0028FCDD4A00002BE3
:1003900001D0012000E00020101801225205D042B7
:1003A000F0D8C817C043604030BD00001E040000F4
:1003B000000000801F22030C02D10F22000402D093
:1003C000030E03D004E00020014670470002083A03
:1003D000030F01D10001121F830F01D18000921E73
:1003E000002801DB4000521E120551184205C012C0
:1003F000411810467047C10FC90700D04042012282
:1004000092071143D6E701218907D3E7F0B58B4C5A
:100410000F09254689B0BD437BD01D092646AE4352
:10042000FAD00E465E402740F60F3E43254071D07D
:1004300024012142FBD0FF24AD19A4042D1B0395F8
:1004400001252D05DB02DB0AC9022B43C90A29431A
:100450001E010901040F130F050121431701880B29
:10046000820391432D098C46A90B1E438A039543B1
:10047000B30B9A0396433F09BA0B9403A743029622
:100480002E467E430497B6464E19D7190C46019660
:10049000544305977E43371B7646BF1B3601B6464D
:1004A000BE0B361900967646BC043719009C01D362
:1004B000641C00946400002F01D001263443029E86
:1004C000049F754366467E430496760034196E0099
:1004D00034190094029C019E1C196643751BAE469C
:1004E000069465464519059C05956C435943754628
:1004F0000891691A0191049E01465143A41B04917D
:10050000611A009C0791E10605D06109012211439F
:1005100002E072E06EE06109089D00272C0A2D06BA
:100520006918049D7C412A0A2D066918019D6241C3
:10053000AC0DAD026D185441079A910D92025519F8
:100540006141029A644658435443069B059A5A43B4
:10055000121A131B9A0E9B015B187A41010B0005BE
:10056000C3185141220A200644195A419A4200D226
:10057000491C01204002814203D315230226F64381
:1005800002E014230326F6432020C51AA94017468B
:10059000AF40DA400A4320460399D8400914731843
:1005A00019055118039A3843D2075140AC4009D07D
:1005B0000122944006D30022401C5141002C01D15D
:1005C000400840001E4A934212D30122039892062B
:1005D000904207DB0520400709181A480143C01262
:1005E000414004E0032040070818C10FC90700205C
:1005F00009B0F0BD0020F107FAE705180C464C41A0
:1006000011486D42A04115D394181A465A410E481C
:10061000644290410ED301204A004005824209D332
:100620005A00824206D35940C90F084AC907002020
:100630001143DDE700200649DAE700000000FF076C
:10064000FE070000FFFFFF7F0000E0FF0000F07FDB
:100650000000F87FF0B5FF252D04C609C209FF2769
:1006600004462E400137CB093E4348402A402B40E8
:100670000746002A6BD0002B69D0AA4267D0AB4254
:1006800065D0002800DA32460125ED0529432C43C8
:1006900009022002090AD21A4B0C7F24E31A434CA8
:1006A000000A7C44E35C7D242404121914145B00CA
:1006B000A218884201D3521C00E0400049420C4677
:1006C0005C4324115C43DB016415E318040A5C43BA
:1006D000C502200D0C4644436419250A5D432303DB
:1006E000EC0C0D46654300030019EB184C42A34285
:1006F00001D35B18401CD4052018002B07D05B00E9
:10070000C91804D3401C002901D1400840003F21F2
:1007100089048A4209D3002A08DC1106090F04D093
:10072000032149074018C00FC007F0BD0122410056
:10073000120689187F2252069142F6D205214907F6
:10074000C84201D59010F0BDFF20C005F0BD002FBC
:1007500000DA32461648AA4207D2AB4205D2190245
:10076000090E17D0F80FC007F0BDFF2563002D0656
:10077000AB42F9D84900A942F6D8AB4201D1A9420F
:10078000F2D0A94201D1002101E061004908D00561
:100790000843F0BD1102090EFBD0FF200243D00533
:1007A000F0BD0A460146104654E70000DA1F00007B
:1007B0000000C07F10B501469E240002CA15A307A1
:1007C000002A02D01843002A04DBA21A002A0CDDFA
:1007D000D04010BD1206120E01D140004008A21AEE
:1007E00003D4D04040420028F3DDFF224800120627
:1007F000904201D9002010BDC817C043584010BD19
:100800001F22030C02D10F2200041CD0030E01D1C1
:100810000002083A030F01D10001121F830F01D11A
:100820008000921E002801DB4000521ED2055118A4
:10083000021251181922904004D3491C002801D1FA
:100840004908490008467047C10FC90700D0404217
:10085000012292071143D3E701218907D0E77546AA
:1008600000F024F8AE46050069465346C008C000B3
:10087000854618B020B5FFF793FC60BC00274908F7
:10088000B6460026C0C5C0C5C0C5C0C5C0C5C0C528
:10089000C0C5C0C5403D49008D46704710B50446EF
:1008A000C046C0462046FFF750FC10BD00487047C8
:1008B0007001002001491820ABBEFEE726000200AF
:1008C0007047000010B501210B4800F01BF801F043
:1008D00085F801F065FC094801680068401E074A78
:1008E0001060012906D200201146086004480078F3
:1008F00001F0A6F910BD00000024014074000020A2
:100900001600002042690A4342617047002904D062
:10091000426801231A43426003E0426852085200D1
:1009200042607047002904D0826804231A43826021
:1009300003E0826804239A4382607047002A03D050
:1009400083680B43836002E083688B438360704756
:1009500010B5024600205068C00BC0030C684B68FD
:100960002343184350609068044B18400C694B694E
:1009700023438C6823431843906010BD800000FF20
:1009800070B51446002242680F26B6021546B543DC
:100990002A469D022A434260202905DAC5680126BD
:1009A0008E403543C5600CE0FF2904D1C568054E73
:1009B0003543C56005E0FA2903D1C5682D0C2D0427
:1009C000C56070BDFFCF0000002141608160016102
:1009D000416101607047FFB583B00C46029400206E
:1009E0000190002726E000261CE0721C0399514369
:1009F0000846791CFFF7F8FB0546A54201D9281BDC
:100A000000E0601B05460298A84204D902950598AB
:100A10000670069807700298002802D10120019004
:100A200002E0761C402EE0D300BF0198002800D0E1
:100A300002E07F1C042FD6D300BF029807B0F0BDA0
:100A4000FCB5024600250026019600200023002464
:100A50000096CE7835072D0FCE7810273E40002E19
:100A600001D08E7835430E78002E27D014680020F0
:100A700021E00126864033460E881E400196019EE5
:100A80009E4217D183000F269E4000962746009E67
:100A9000B7433C462E469E403443CE78282E03D1A1
:100AA00001268640566105E0CE78482E02D1012607
:100AB00086401661401C0828DBD314600E88FF2E88
:100AC0002CDD5468002026E0064608360127B74092
:100AD0003B460E881E400196019E9E421AD183001D
:100AE0000F269E4000962746009EB7433C462E4662
:100AF0009E403443CE78282E04D10646083601277E
:100B0000B7405761CE78482E04D1064608360127F3
:100B1000B7401761401C0828D6D35460FCBDF0B51F
:100B2000002300244D07EE0E1546B5402B46CD1090
:100B3000002D0BD1056A4E07F70E0F26BE40B543B8
:100B40000562056A1D432C4604620AE0456A4E07A9
:100B5000F70E0F26BE40B5434562456A1D432C463D
:100B60004462F0BD0246002093680B40002B01D088
:100B7000012000E00020704741617047016170472B
:100B8000002A01D0016100E04161704702468A42BB
:100B900001DA104670470846FCE700000021827821
:100BA000002A27D0184A03231B02D21803789B106F
:100BB0009B00D15802789207D30EFF229A400B4631
:100BC0009343194642789207120E03789B07DB0E77
:100BD0009A4011430C4A03231B02D21803789B103E
:100BE0009B00D1500278D306DB0E01229A40064BBF
:100BF0001A6007E00278D306DB0E01229A40024B0E
:100C000080331A607047000000E100E0002905D041
:100C1000054A12690243044B1A6104E0024A126950
:100C20008243014B1A617047003C0140002905D006
:100C3000054A52690243044B5A6104E0024A526970
:100C40008243014B5A61704700100240002905D0D1
:100C5000054AD2690243044BDA6104E0024AD269D0
:100C60008243014BDA61704700100240002905D031
:100C7000054A12690243044B1A6104E0024A1269F0
:100C80008243014B1A61704700100240002905D0D1
:100C9000054A92690243044B9A6104E0024A926950
:100CA0008243014B9A61704700100240002905D031
:100CB000054AD2680243044BDA6004E0024AD26873
:100CC0008243014BDA60704700100240FEB50446D3
:100CD000002500260020019000900027344840683D
:100CE0000C2108400546042D02D1324820603BE02B
:100CF000082D32D12E480068800E461C2C48006812
:100D0000072109050840000D401C01902848406853
:100D10006903084000900098002807D126497143D4
:100D200008460199FFF760FA20601DE020484068FE
:100D3000012149040840002807D020497143084692
:100D40000199FFF751FA20600EE01A4971430846F5
:100D50000199FFF749FA206006E00C2D02D11848EE
:100D6000206001E01348206011484068F0210840ED
:100D700005462D091348475D2068F84060600C481F
:100D8000406807210902084005462D0A0D48475DC5
:100D90006068F840A06006484068C9000840054601
:100DA000ED0A0848475D6068F840E060FEBD00005D
:100DB0000010024000127A00001BB70000093D003D
:100DC000409C00007A00002010B500F001F810BD32
:100DD0001CB544480068012108434249086000BF2F
:100DE00040480068022108400028F9D03E483F49A9
:100DF00008603F480068102108433D4908600846E4
:100E00000068C008C000086038490968481E3949B0
:100E1000FFF7EAF904463648006820433449086081
:100E2000304840682F4948600846406848602F486D
:100E300000683149884207D92A484068012189025F
:100E400008432849486006E0264840680121890295
:100E50000843244948602348406803210904884323
:100E600020494860084600680003000B08606B4694
:100E700001AA1E4801682148FFF7ADFD1948006826
:100E80000003000B17490860694608798006097855
:100E900009050843134909680843124908600846D0
:100EA00000680121090608430E49086000BF0D488B
:100EB00000680121490608400028F8D00948406828
:100EC00080088000074948600846406802210843BE
:100ED0000449486000BF034840680C2108400828C6
:100EE000F9D11CBD0010024000D8B8058C000020CC
:100EF0000020024000366E0100512502001BB700A1
:100F000010B51748006801210843154908600846D4
:100F10004068144908401249486008460068124970
:100F200008400F4908600846006801218904884389
:100F30000B490860084640687F2109048843084936
:100F40004860084600680003000B08609F2000040A
:100F50008860E120C00201F0F7FAFFF735FF10BD0D
:100F6000001002400000FFF0FFFFF6FEF0B50C4657
:100F700000210025066A0B4F3E4006628669B1B229
:100F8000066AB5B2074EF23E31401E05360C1643D6
:100F90003143044E093E35400126264335438161E5
:100FA0000562F0BDFEFF0000F8B50C4600210025EB
:100FB00000260096066A0E4F3E4006628669B1B270
:100FC000066AB5B22605360C00960A4E31401E0759
:100FD000360C31431606360C3143054E903E3540F3
:100FE0001027009E3E43354381610562F8BD000035
:100FF000EFFF0000FF0C000000202D49486208466A
:1010000000690221084000282DD0481F28490861A6
:101010000920C006806809150840002817D0254817
:10102000007802281FD00220224908702048406B17
:1010300000B22149088008460088204909884018E4
:1010400000B21F49088001201E4908700BE01948B2
:101050000078012807D00120164908701448406B19
:1010600000B21649088012480069C007C00F002866
:101070001DD00920C006806801218902084000288F
:101080000BD07D20C0000E4908800020085E0B496F
:10109000088000200849088002E0002007490880F5
:1010A0000120C043024908610220064908707047C8
:1010B00000440140000000200C0000200E00002031
:1010C0000A0000200800002010B50121094800F0A6
:1010D00049F9002803D00121064800F0C1F8802119
:1010E000044800F03FF9002803D08021014800F0B7
:1010F000B7F810BD002C0140FEB501213A4800F0C0
:1011000031F900286ED00121374800F0A9F800F02D
:1011100085FE00F0A5FF44B2002C01D1012001E0C2
:101120000020C043044631480078002818D02F48DA
:101130000078012802D100202C4908702C49002099
:10114000085EFFF781FB05462A490020085EFFF78D
:101150007BFB06462946FFF77DFA2749086002E037
:101160000020254908604B21090161430846FFF72B
:101170006BFB064620480168304601F029FA054617
:10118000FFF718FB1D494860084640681C49886005
:1011900000F0B2FE1A488068194908620846C06823
:1011A00087214901884204DB1548C06849428842CA
:1011B00016DD4B21090161430846FFF71CF905467E
:1011C000104A114BFFF722F901910090FFF7BCF88C
:1011D00007460B48016A3846FFF7D8FC0849086201
:1011E00000F05EFEFEBD000000040040080000208C
:1011F0000A0000200E00002004000020AC000020A7
:10120000C0000020666666666666E63F002904D078
:10121000026880231A43026003E00268014B1A400F
:10122000026070477FFF00000A884B881A438B8852
:101230001A43CB881A430B891A434B891A438B896B
:101240001A43426470470021018041808180C1803F
:101250000181418181817047CA4392B20261704726
:10126000CA43026170470000002904D002680123CC
:101270001A43026003E00268014B1A4002607047A3
:10128000FEFF000010B504462B48844208D101211E
:10129000C014FFF70BFD0021E014FFF707FD4AE043
:1012A00001208007844208D101210846FFF7DEFCB7
:1012B00000210120FFF7DAFC3DE02048844208D1FC
:1012C00001210220FFF7D2FC00210220FFF7CEFC13
:1012D00031E01B48844208D101214014FFF7E6FCAD
:1012E00000216014FFF7E2FC25E01648844209D192
:1012F00001210804FFF7BAFC002101200004FFF7D8
:10130000B5FC18E01048844209D101214804FFF7D8
:10131000CDFC002101204004FFF7C8FC0BE00B4886
:10132000844208D101218804FFF7C0FC002101207C
:101330008004FFF7BBFC10BD002C014000040040FE
:1013400000080140004001400044014000480140C5
:101350000246002013690B40002B01D0012000E061
:101360000020704730B50246002000230024156994
:101370000D402B46D5680D402C46002B03D0002C89
:1013800001D0012000E0002030BD0021018041801B
:10139000012181800021C18001817047002A03D092
:1013A000C3680B43C36002E0C3688B43C3607047EC
:1013B00070B5002400220023056A1D4E35400562E9
:1013C000056AAAB24568ABB28569ACB2184D6F3DEB
:1013D0002C40B51E2C400D882C43751E2A400D89CB
:1013E0002A434D882A43134DA84208D0124DA842E3
:1013F00005D0124DA84202D0114DA84212D10C4D79
:10140000ED1F2A404D892A43094DED1E2A408D8843
:101410002A43074DFF3D2B400A4D2B408D892B431E
:10142000CD892B4343608461CD884563026270BDE2
:10143000FEFF0000002C0140004401400048014034
:1014400000080140FFFD00000A460021836999B2AF
:10145000034B19400B461343194681617047000046
:10146000F7FF000070B5002400220023056A244E17
:1014700035400562056AAAB24568ABB28569ACB26F
:10148000204D2C40204D2C400D782D062D0C2C434A
:101490001B4D103D2A400D892D052D0C2A434D88EA
:1014A0002D052D0C2A43194DA84202D0184DA842F3
:1014B0001FD1184D2B408D89AD042D0C2B43134D9E
:1014C000A84202D0124DA84213D10D4D703D2A40C2
:1014D0004D892D052D0C2A43094D303D2A408D881C
:1014E0002D052D0C2A430C4D2B40CD89AD042D0C20
:1014F0002B4343608461CD888563026270BD000028
:10150000EFFF0000FF8F0000FFFC0000002C0140F7
:1015100000080140FFFB0000FFF700000A46002121
:10152000836999B2034B194013061B0C194381615F
:1015300070470000FFF7000070B500240022002370
:10154000056A1F4E35400562056AAAB24568ABB20E
:10155000C569ACB21A4D90352C40194DFD352C4063
:101560000D882C43174D2A400D7A2D062D0C2A4349
:101570008D782D062D0C2A43134DA84202D0134D11
:10158000A84217D1124D2A408D7A2D062D0C2A43E0
:10159000104D2A400D792D062D0C2A430E4D2B405F
:1015A0000E4D2B408D892D052D0C2B43CD892D05FE
:1015B0002D0C2B434360C461CD88C563026270BDAE
:1015C000FFFE0000FFFD0000002C0140000801406C
:1015D000FFF70000FFFB0000FFEF0000FFDF00004F
:1015E0000A460021C36999B2034B19400B461343C5
:1015F0001946C16170470000F7FF000070B5002375
:1016000000220024056A164E35400562056AAAB21A
:101610004568ACB2C569ABB2124D2B40124D2B40A0
:101620000D782D062D0C2B43104D2A400D7A2D07D9
:101630002D0C2A438D782D072D0C2A430C4DA842E2
:1016400002D00C4DA84205D10B4D2C408D89AD0523
:101650002D0C2C434460C361CD880564026270BDCB
:10166000FFEF0000FF8F0000FFFC0000FFDF000025
:10167000002C014000080140FFBF00000A46002185
:10168000C36999B2034B194013061B0C1943C1617E
:1016900070470000FFF70000002101804180818039
:1016A000C180018141818181C1817047F8B50546C2
:1016B0000C46002601276088002801D1022600E0A0
:1016C0000026A088012801D1022700E001272088F8
:1016D000002814D12389A28861882846FFF746FC98
:1016E000E188284600F020F823893A46314628460A
:1016F000FFF75AFCE188284600F020F813E0238920
:10170000A28861882846FFF74FFCE188284600F050
:1017100015F823893A4631462846FFF727FCE18829
:10172000284600F001F8F8BD8269034B1A40826137
:1017300082690A4382617047F3FF00008269044BAB
:101740001A40826182690B061B0C1A438261704742
:10175000FFF30000002203689AB2164B984209D0AA
:1017600001239B07984205D0134B984202D0134B9C
:10177000984204D1124B1A408B8813439AB2114BF2
:101780001A408B8913439AB202608B68C3620B685C
:101790008362084B984208D0084B984205D00A4B08
:1017A000984202D0094B984201D10B7C036301237C
:1017B00043617047002C01400004004000080140D4
:1017C0008FFF0000FFFC0000004401400048014082
:1017D0000349816000210160C1604160017470476C
:1017E000FFFF0000002904D0826901231A438261AF
:1017F00003E08269014B1A4082617047FEFF0000DE
:10180000F0B587B004460D460026002006900590EE
:1018100000272746E669FF21D03130468843064637
:10182000A888E9880843298908430643E661A66930
:1018300076097601A889698908430643A66101A84B
:10184000FFF744FA0C48874202D10398069001E062
:101850000498069029680698FEF7C6FC06092968D0
:101860000698FEF7C1FC0007000F05902662059858
:10187000606207B0F0BD0000004400404B21C90188
:101880000160302181800021C180018118214181C6
:1018900000218181704730B47446641E2578641C31
:1018A000AB4204D3635D5B00E31830BC18471D46B0
:1018B000F8E7000000B589B0012103204002FFF7DE
:1018C000E5F901214804FFF7B1F901218804FFF788
:1018D000ADF9482168460184002108A8C17008A913
:1018E0000920C006FFF7ACF838496846018400219A
:1018F00008A8C17008A93648FFF7A2F802A8FFF7A8
:1019000063F80020029030200390012040020490F0
:101910000020079001208004069002A92D48FFF7BF
:1019200017F801212B48FEF7F1FF012300220321C4
:101930002848FFF725F801231A4606212548FFF716
:101940001FF80123022207212248FFF719F801237B
:1019500003220A211F48FFF713F8012304220B2159
:101960001C48FFF70DF80020029030200390012062
:10197000400204900020079001208004069002A9F4
:101980001548FEF7E5FF01211348FEF7BFFF0123CD
:10199000002219461048FEF7F3FF01210E48FEF71A
:1019A000C1FF012211460B48FEF7C8FF012109487B
:1019B000FEF7B8FF0C216846017101214171817168
:1019C00001A8FFF7EBF809B000BD00000484000097
:1019D0000004004800240140002801400B48406AF0
:1019E0000B4988800948006B48800A48C06981001B
:1019F00040188001000C0649088004484030006807
:101A0000C880024840304068088170470024014087
:101A1000A0000020002801404B200001044948613B
:101A2000044808600448486000200862C8607047A5
:101A3000C00000206F12833AACC5273708B50121DA
:101A40004804FFF7F3F80721684601804821C17078
:101A500069460920C006FEF7F3FF00F085FB08BDCC
:101A600010B517480078002809D1012000F02EF8A1
:101A7000012000F037F8012000F090F81EE000206F
:101A800000F024F880210F48FFF762FC002807D0FF
:101A900080210C48FFF7E4FB002000F023F802E06F
:101AA000012000F01FF808488068002803D00020BB
:101AB00000F074F802E0012000F070F810BD0000A2
:101AC000AC000020002C01406401002010B5044649
:101AD0002246012149030248FFF752F810BD0000D9
:101AE0000004004810B5044622460121890302483B
:101AF000FFF746F810BD00000008004808B50121B6
:101B00000F204004FFF792F80121C90368460180C5
:101B1000012181701021C17069461E48FEF790FFB7
:101B20000121890368460180012181701021C17063
:101B300069461848FEF784FF012149036846018081
:101B4000012181701021C17069461348FEF778FFAA
:101B50000121C9030F48FFF711F8012189030D483E
:101B6000FFF70CF8012149030B48FFF707F80121A3
:101B7000090368460180012181701021C170694606
:101B80000448FEF75DFF012109030248FEF7F6FF56
:101B900008BD0000000800480004004810B50446D5
:101BA00022460121C9030248FEF7EAFF10BD0000EA
:101BB00000080048FFF7A2FF00F024FAFFF77AFEC2
:101BC0000C4800F001FAFFF739FFFFF725FF00F09E
:101BD000A9F900F037F900F04BFA09214B20000178
:101BE00000F0A6FB04495F2000F07CFC01E0FFF759
:101BF00037FFFCE7E4000020E703000010B50D48C4
:101C0000006A0D4908400B49086240210B48FEF765
:101C1000B5FF10210948FEF7B1FF0121C9030920D2
:101C2000C006FEF7ABFF0020024948638863C86323
:101C300010BD0000002C0140EEFE00000004004832
:101C400010B5044665488068002806D1644840788D
:101C5000002802D0FFF7D2FFBEE0614800780028DC
:101C600002D1FFF7CBFFB7E02300FFF714FE07A771
:101C700005203B56718CA70040215A48FEF77CFF97
:101C800010215848FEF778FF5748006A5749084026
:101C9000554908620846006A102108435249086203
:101CA0000121C9030920C006FEF768FF93E0402127
:101CB0004C48FEF761FF0121C9030920C006FEF769
:101CC0005BFF4948006A494908404749086208469D
:101CD000006A012108434449086210214148FEF787
:101CE0004DFF78E040213F48FEF746FF10213D4878
:101CF000FEF742FF3C48006A3C4908403A49086206
:101D00000846006A01210843374908620121C903D6
:101D10000920C006FEF732FF5DE010213148FEF7D2
:101D20002BFF0121C9030920C006FEF725FF2E481D
:101D3000006A2E4908402C4908620846006A891545
:101D400008432949086240212648FEF717FF42E070
:101D500010212448FEF710FF0121C9030920C00605
:101D6000FEF70AFF2048006A204908401E49086221
:101D70000846006A102108431B490862402119489F
:101D8000FEF7FCFE27E040211648FEF7F5FE012194
:101D9000C9030920C006FEF7EFFE1348006A134985
:101DA0000840114908620846006A891508430E492F
:101DB000086210210B48FEF7E1FE0CE00A48006AB9
:101DC0000B490840084908620846006A074908406C
:101DD0000549086200BF00BF10BD0000C000002020
:101DE000AC00002000040048002C0140EEFE000082
:101DF000BBFB000010B50348827804210248FEF7BF
:101E0000BFFE10BDAC000020000C00480249486332
:101E10008863C86370470000002C014010B50121A1
:101E200089030648FEF79EFE002803D000200449DF
:101E3000087002E001200249087010BD000400484B
:101E4000AC00002008B5012105208004FEF7EEFE5D
:101E50000121090368460180032181701021C170AE
:101E600069460920C006FEF7EBFD042168460180A3
:101E7000032181701021C17069460748FEF7E0FD1B
:101E800001218903684601802821C1706946034801
:101E9000FEF7D6FD08BD0000000C00480004004815
:101EA00010B51348008C04B212488078002803D182
:101EB000002C07DA002405E0002C02DC604204B2AA
:101EC00000E000240A488068002806D109484078CC
:101ED000002802D0FFF792FE09E0064800780028AB
:101EE00002D1FFF78BFE02E0A0B2FFF78FFF10BD1B
:101EF000C0000020AC00002010B508488068002811
:101F000009D100F0ADF8002802D10549887002E03F
:101F1000012003498870FFF76DFF10BD64010020A8
:101F2000AC00002001200349487000208870486000
:101F300070470000AC00002010B509480078002868
:101F400001D1012000E00020054908700846027810
:101F5000012109030920C006FEF712FE10BD000092
:101F60001000002070B505460C461648406801195F
:101F7000144880380078820012487C388058091A4A
:101F8000104841600246803A517802465068FEF798
:101F900035F90C4988600846803800788100094886
:101FA0007C384450001F0078401C06498039087076
:101FB000084640780978884203DC002001498039CE
:101FC000087070BD6401002010B5014600230C4A62
:101FD0009360536000220A4B803B1A7020225A7093
:101FE000002006E000238400054A7C3A1351421C7D
:101FF000D0B2034A803A52788242F3DC10BD00002E
:102000006401002008B5012103204004FEF70EFE04
:102010001149684601800021C17069460F48FEF7EA
:102020000FFD3021684601800021C17069460920FA
:10203000C006FEF705FD0121C803FEF727FE0121BA
:102040000846FEF7E3FD01210802FEF7DFFD01214E
:102050000804FEF7DBFD08BD03180000000400487B
:1020600010B5012149020920C006FEF77BFD10BD15
:1020700000B58BB001214804FEF7D8FD06220A21E5
:102080000920C006FEF74BFD012189026846018543
:10209000282108A8C1720AA90920C006FEF7D0FCB1
:1020A0000121490268460185282108A8C1720AA9B0
:1020B0000920C006FEF7C4FC152108A80171002103
:1020C00041710121817109A8FEF768FD01214804D1
:1020D000FEF7DCFD04A8FFF77BFB1F4806901F49B5
:1020E0001F480068FEF780F8401E0490002007900B
:1020F000002108A801700020059004A91948FFF7E5
:1021000029FB01A8FFF741F90021684681800A21D7
:10211000C18001210181002141810221818101A928
:102120001048FFF7C3FA012202210E48FFF736F9E3
:10213000012211460B48FFF731F902210948FFF748
:102140008FF801210748FFF78BF801210548FFF7B9
:102150008BF80BB000BD0000204E000040420F0085
:102160008C0000200044014070B501210920C00608
:10217000FEF7F8FC044602210920C006FEF7F2FC37
:10218000054604210920C006FEF7ECFC0646A00027
:102190006900401880190149087070BD14000020C2
:1021A00070B5FFF7E1FF52480088401C5049088095
:1021B000084600884F4988420CDB08464C49088095
:1021C0004D49088048808880C880088148814B48F4
:1021D000FFF7FAFE4A4800784A490978884273D0E6
:1021E0004948006800286FD148480078401C47499A
:1021F000087008460078062801DB002008703C487B
:1022000000884249097849003B4A50520020384929
:10221000088000BF3E490860002509E06800364993
:10222000085A3B490968401839490860681CC5B21A
:10223000062DF3DB364801683648FDF7D5FF044626
:1022400035488078012800D1644221462B48FFF7A9
:1022500089FE00BFFFF770FE2848803080687D212E
:10226000C901884205DC254880308068494288429F
:102270000ADA29488078C00028494018204909789E
:10228000405C274908702DE01C48803080687D2123
:102290004901884205DC19488030806849428842FB
:1022A00013DA1D488078C0001E4940181449097887
:1022B000405C1B4908701C48008815490968484360
:1022C000C009114908600DE010E013488078C00093
:1022D000164940180A490978405C114908700020E5
:1022E00009490860064800780649087070BD00007A
:1022F000700000208813000060000020E40000202F
:102300001400002015000020740000205F00002051
:102310006C000020009F2400AC0000204F00002033
:10232000160000202F000020780000201700002059
:1023300030B58FB004460D460121C802FEF7A6FC59
:10234000012103204004FEF771FC0121C902684607
:102350000187282108A8C1760EA90920C006FEF72A
:102360006FFB06220B210920C006FEF7D8FBA8212F
:1023700068460187032108A881761821C1760EA935
:102380005648FEF75DFB072211465448FEF7C7FB8F
:10239000072205215148FEF7C2FB072203214F48BF
:1023A000FEF7BDFB0121C90368460187102108A87B
:1023B000C176032181760EA90920C006FEF740FBF5
:1023C000502168460187102108A8C1760321817633
:1023D0000EA94248FEF734FB4148FEF753FF09A817
:1023E000FFF7F6F90B940020099020200A900020B6
:1023F0000C90012108A8017509A93948FFF7AAF92D
:1024000005A8FFF749F96021684681820121C18250
:102410000421018300218183C1830184418441839C
:1024200005A92F48FEF7C4FF00216846418305A98E
:102430002B48FFF717F800216846418305A9284873
:10244000FFF77AF801216846418305A92448FFF780
:10245000D5F800212248FEF7F7FF00212048FFF7BA
:102460005DF800211E48FFF7BBF800211C48FFF76C
:1024700005F900201A49886201A8FEF7E4FE002150
:1024800068468180C1800121490201814581C900DE
:1024900081814900C1814900018201A91048FEF7EC
:1024A000C3FE01210E48FEF7B1FE002280210C4838
:1024B000FEF774FF002201210948FEF76FFF0D218E
:1024C00068460170012141708170FEF767FB0121B0
:1024D0000348FEF7C9FE0FB030BD000000040048FD
:1024E000002C014030B587B004460D460121022082
:1024F000FEF7ACFB02A8FFF76BF9049502940020ED
:102500000590039000216846017602A90D48FFF767
:1025100021F9102168460171022141710121817167
:1025200001A8FEF73BFB01210648FEF795FE0122BC
:1025300011460448FEF732FF01210248FEF794FEDF
:1025400007B030BD0004004010B586B0044601213C
:102550000805FEF76BFB032200211B48FEF7DFFA9C
:10256000032201211848FEF7DAFA01216846818228
:10257000032181751821C17505A91348FEF760FA7A
:102580000221684681824821C17505A90E48FEF7DF
:1025900057FA01218803FEF779FB01A8FFF76EF9CE
:1025A00001943021684601810021418181810182AD
:1025B0001821C18101A90548FFF722F9012103482B
:1025C000FFF710F906B010BD000C004800380140BC
:1025D00070B5420064414B005C41120E39D01B0EB5
:1025E00038D0FF2A3CD0FF2B3AD040024902400AA3
:1025F000490A060045184E43000A090AD218484302
:10260000ED017F3A0104731A4019190C4318990F10
:1026100004D001215B0849075B1A521CD80904D376
:10262000401CF50301D19D0607D0FF2A08D2D5052D
:1026300006D0E4072043401970BD0125A843F4E704
:10264000002A01DCE00770BD2402FF202043C00502
:1026500070BD1B0EFF2A03D0FF2B01D0E00770BD19
:10266000FF2645003606B54206D84D00B54203D8D0
:10267000D218FF2A00D0E7E7004870BD0000C07FF5
:102680008182838485868788898B8C8D8E8F9192B9
:1026900093959697999A9C9D9FA0A2A3A5A7A8AA57
:1026A000ACAEB0B2B3B5B7B9BCBEC0C2C5C7C9CC79
:1026B000CED1D4D7D9DCDFE2E6E9ECF0F3F7FAFECD
:1026C000E026000800000020A0000000F80000083C
:1026D00080270008A0000020300700001401000837
:1026E00000000000000000000000000000000000EA
:1026F00000000000000000000306020501040000C5
:1027000005030106040200000000000000000000B4
:10271000020406010305000004010502060300008F
:102720000000000000000000010203040506000094
:10273000060504030201000006050403020100006F
:1027400088138813881388138813881300000000E7
:10275000881300008813000006000000000001023A
:1027600003040102030406070809000000D8B805A5
:102770000000000000000000010203040607080931
:04000005080000B53A
:00000001FF
