:020000040800F2
:10000000C0070020590100088B0100088D0100087D
:100010008F01000891010008930100080000000012
:100020000000000000000000000000009501000832
:100030009701000800000000990100089B010008DA
:100040009D0100089D0100089D0100089D01000818
:100050009D0100089D0100089D0100089D01000808
:100060009D0100089D0100089D0100089D010008F8
:10007000B9050008AD0D00089D0100089D010008AC
:10008000DD0D00089D0100089D0100089D0100088C
:100090009D010008DD0C00089D0100089D0100087D
:1000A0009D0100089D0100089D0100089D010008B8
:1000B0009D01000800F002F800F03EF80CA030C8E6
:1000C000083824182D18A246671EAB4654465D46D4
:1000D000AC4201D100F030F87E460F3E0FCCB64660
:1000E0000126334200D0FB1AA246AB4633431847E1
:1000F0003022000050220000103A02D378C878C1A4
:10010000FAD8520701D330C830C101D504680C6059
:10011000704700000023002400250026103A01D378
:1001200078C1FBD8520700D330C100D50B607047AF
:100130001FB51FBD10B510BD00F00BFA1146FFF73B
:10014000F7FF01F083FB00F023FA03B4FFF7F2FF9F
:1001500003BC00F029FA0000144880F30888144812
:100160000168090E134A9142FFD1134813490160F7
:100170001348144901601448124901600E4813499C
:1001800001601348804713480047FEE7FEE7FEE79B
:10019000FEE7FEE7FEE7FEE7FEE7FEE7FEE700001C
:1001A0000D480E490E4A0F4B70470000C007002053
:1001B000040000001F0000001C10024000000004AA
:1001C00018680040120000001C6800400000000099
:1001D000E50B0008B5000008C0010020C0070020A2
:1001E000C0030020C0030020002203098B422CD34F
:1001F000030A8B4211D300239C464EE003460B4377
:100200003CD4002243088B4231D303098B421CD3D8
:10021000030A8B4201D394463FE0C3098B4201D3CA
:10022000CB01C01A524183098B4201D38B01C01A02
:10023000524143098B4201D34B01C01A5241030979
:100240008B4201D30B01C01A5241C3088B4201D328
:10025000CB00C01A524183088B4201D38B00C01AD5
:10026000524143088B4201D34B00C01A5241411AFC
:1002700000D201465241104670475DE0CA0F00D0DF
:100280004942031000D34042534000229C460309D8
:100290008B422DD3030A8B4212D3FC22890112BA5E
:1002A000030A8B420CD3890192118B4208D3890136
:1002B00092118B4204D389013AD0921100E089094E
:1002C000C3098B4201D3CB01C01A524183098B422F
:1002D00001D38B01C01A524143098B4201D34B0118
:1002E000C01A524103098B4201D30B01C01A52417B
:1002F000C3088B4201D3CB00C01A524183088B4202
:1003000001D38B00C01A5241D9D243088B4201D38A
:100310004B00C01A5241411A00D201466346524175
:100320005B10104601D34042002B00D54942704774
:1003300063465B1000D3404201B50020C046C04672
:1003400002BD704770477047F0B5FF252D04C60900
:10035000C209FF2704462E400137CB093E434840DF
:100360002A402B400746002A6BD0002B69D0AA42B6
:1003700067D0AB4265D0002800DA32460125ED0592
:1003800029432C4309022002090AD21A4B0C7F246C
:10039000E31A434C000A7C44E35C7D2424041219D4
:1003A00014145B00A218884201D3521C00E04000E4
:1003B00049420C465C4324115C43DB016415E3189D
:1003C000040A5C43C502200D0C4644436419250A07
:1003D0005D432303EC0C0D46654300030019EB1845
:1003E0004C42A34201D35B18401CD4052018002BBB
:1003F00007D05B00C91804D3401C002901D1400874
:1004000040003F2189048A4209D3002A08DC1106F2
:10041000090F04D0032149074018C00FC007F0BDE1
:1004200001224100120689187F2252069142F6D21B
:1004300005214907C84201D59010F0BDFF20C00535
:10044000F0BD002F00DA32461648AA4207D2AB426E
:1004500005D21902090E17D0F80FC007F0BDFF250D
:1004600063002D06AB42F9D84900A942F6D8AB4249
:1004700001D1A942F2D0A94201D1002101E06100DD
:100480004908D0050843F0BD1102090EFBD0FF203A
:100490000243D005F0BD0A460146104654E700006D
:1004A000461F00000000C07F10B501469E240002D8
:1004B000CA15A307002A02D01843002A04DBA21A97
:1004C000002A0CDDD04010BD1206120E01D14000F2
:1004D0004008A21A03D4D04040420028F3DDFF2296
:1004E00048001206904201D9002010BDC817C04331
:1004F000584010BD1F22030C02D10F2200041CD053
:10050000030E01D10002083A030F01D10001121FAE
:10051000830F01D18000921E002801DB4000521E93
:10052000D2055118021251181922904004D3491CC7
:10053000002801D14908490008467047C10FC90782
:1005400000D04042012292071143D3E701218907DD
:10055000D0E7754600F024F8AE46050069465346DC
:10056000C008C000854618B020B5FFF719FE60BC72
:1005700000274908B6460026C0C5C0C5C0C5C0C5CD
:10058000C0C5C0C5C0C5C0C5403D49008D46704707
:1005900010B50446C046C0462046FFF7D6FD10BD44
:1005A000004870476001002001491820ABBEFEE7FB
:1005B000260002007047000010B501210B4800F032
:1005C0001BF801F057F801F037FC09480168006892
:1005D000401E074A1060012906D20020114608601B
:1005E0000448007801F078F910BD000000240140B3
:1005F000640000201600002042690A4342617047EF
:10060000002904D0426801231A43426003E0426893
:100610005208520042607047002904D082680423C7
:100620001A43826003E0826804239A438260704721
:10063000002A03D083680B43836002E083688B4306
:100640008360704710B5024600205068C00BC0039D
:100650000C684B682343184350609068044B184063
:100660000C694B6923438C6823431843906010BD89
:10067000800000FF70B51446002242680F26B602C3
:100680001546B5432A469D022A434260202905DAD1
:10069000C56801268E403543C5600CE0FF2904D1B2
:1006A000C568054E3543C56005E0FA2903D1C56824
:1006B0002D0C2D04C56070BDFFCF000000214160EE
:1006C00081600161416101607047FFB583B00C46F4
:1006D000029400200190002726E000261CE0721CF6
:1006E000039951430846791CFFF77EFD0546A54254
:1006F00001D9281B00E0601B05460298A84204D9D6
:10070000029505980670069807700298002802D195
:100710000120019002E0761C402EE0D300BF01983A
:10072000002800D002E07F1C042FD6D300BF02981F
:1007300007B0F0BDFCB5024600250026019600205A
:10074000002300240096CE7835072D0FCE78102791
:100750003E40002E01D08E7835430E78002E27D0F3
:100760001468002021E00126864033460E881E4092
:100770000196019E9E4217D183000F269E4000964F
:100780002746009EB7433C462E469E403443CE78D3
:10079000282E03D101268640566105E0CE78482EEA
:1007A00002D1012686401661401C0828DBD3146064
:1007B0000E88FF2E2CDD5468002026E00646083601
:1007C0000127B7403B460E881E400196019E9E427F
:1007D0001AD183000F269E4000962746009EB743FD
:1007E0003C462E469E403443CE78282E04D1064601
:1007F00008360127B7405761CE78482E04D1064607
:1008000008360127B7401761401C0828D6D354602A
:10081000FCBDF0B5002300244D07EE0E1546B54093
:100820002B46CD10002D0BD1056A4E07F70E0F2673
:10083000BE40B5430562056A1D432C4604620AE0CA
:10084000456A4E07F70E0F26BE40B5434562456A1E
:100850001D432C464462F0BD0246002093680B40C5
:10086000002B01D0012000E000207047416170475B
:1008700001617047002A01D0016100E041617047C9
:1008800000218278002A27D0184A03231B02D2189D
:1008900003789B109B00D15802789207D30EFF2259
:1008A0009A400B469343194642789207120E0378FA
:1008B0009B07DB0E9A4011430C4A03231B02D218FC
:1008C00003789B109B00D1500278D306DB0E0122E7
:1008D0009A40064B1A6007E00278D306DB0E01222D
:1008E0009A40024B80331A607047000000E100E03C
:1008F000002905D0054A12690243044B1A6104E03D
:10090000024A12698243014B1A617047003C014060
:10091000002905D0054A52690243044B5A6104E09C
:10092000024A52698243014B5A61704700100240EB
:10093000002905D0054AD2690243044BDA6104E07C
:10094000024AD2698243014BDA61704700100240CB
:10095000002905D0054A12690243044B1A6104E0DC
:10096000024A12698243014B1A617047001002402B
:10097000002905D0054A92690243044B9A6104E0BC
:10098000024A92698243014B9A617047001002400B
:10099000002905D0054AD2680243044BDA6004E01E
:1009A000024AD2688243014BDA607047001002406D
:1009B000FEB5044600250026002001900090002787
:1009C000344840680C2108400546042D02D13248C5
:1009D00020603BE0082D32D12E480068800E461C76
:1009E0002C480068072109050840000D401C0190B3
:1009F000284840686903084000900098002807D103
:100A00002649714308460199FFF7EEFB20601DE07F
:100A100020484068012149040840002807D02049A7
:100A2000714308460199FFF7DFFB20600EE01A4989
:100A3000714308460199FFF7D7FB206006E00C2DB3
:100A400002D11848206001E0134820601148406836
:100A5000F021084005462D091348475D2068F840FD
:100A600060600C48406807210902084005462D0ACD
:100A70000D48475D6068F840A06006484068C900BE
:100A800008400546ED0A0848475D6068F840E060A8
:100A9000FEBD00000010024000127A00001BB700EB
:100AA00000093D00409C00006A00002010B500F0E5
:100AB00001F810BD1CB544480068012108434249B3
:100AC000086000BF40480068022108400028F9D0B3
:100AD0003E483F4908603F480068102108433D49AF
:100AE000086008460068C008C00008603849096806
:100AF000481E3949FFF778FB044636480068204312
:100B000034490860304840682F49486008464068CA
:100B100048602F4800683149884207D92A48406810
:100B20000121890208432849486006E026484068B8
:100B30000121890208432449486023484068032171
:100B40000904884320494860084600680003000BF8
:100B500008606B4601AA1E4801682148FFF7B5FDF1
:100B6000194800680003000B1749086069460879B6
:100B700080060978090508431349096808431249A2
:100B80000860084600680121090608430E4908600C
:100B900000BF0D4800680121490608400028F8D030
:100BA0000948406880088000074948600846406856
:100BB000022108430449486000BF034840680C21F3
:100BC00008400828F9D11CBD0010024000D8B80523
:100BD0007C0000200020024000366E0100512502FA
:100BE000001BB70010B517480068012108431549DC
:100BF00008600846406814490840124948600846A1
:100C00000068124908400F49086008460068012141
:100C1000890488430B490860084640687F2109041D
:100C2000884308494860084600680003000B0860D4
:100C30009F2000048860E120C00201F0B5FAFFF7B0
:100C400035FF10BD001002400000FFF0FFFFF6FE70
:100C5000F0B50C4600210025066A0B4F3E400662A7
:100C60008669B1B2066AB5B2074EF23E31401E0542
:100C7000360C16433143044E093E354001262643C7
:100C8000354381610562F0BDFEFF0000F8B50C46FA
:100C90000021002500260096066A0E4F3E4006629F
:100CA0008669B1B2066AB5B22605360C00960A4EC0
:100CB00031401E07360C31431606360C3143054EC3
:100CC000903E35401027009E3E43354381610562CA
:100CD000F8BD0000EFFF0000FF0C000000202D49D0
:100CE0004862084600690221084000282DD0481FAC
:100CF000284908610920C0068068091508400028B5
:100D000017D02548007802281FD0022022490870F9
:100D10002048406B00B221490880084600882049DD
:100D20000988401800B21F49088001201E49087038
:100D30000BE019480078012807D0012016490870F7
:100D40001448406B00B21649088012480069C00779
:100D5000C00F00281DD00920C0068068012189022B
:100D6000084000280BD07D20C0000E4908800020DC
:100D7000085E0B49088000200849088002E0002036
:100D8000074908800120C043024908610220064942
:100D90000870704700440140000000200C00002053
:100DA0000E0000200A0000200800002010B50121DC
:100DB000094800F023F9002803D00121064800F07B
:100DC0009BF88021044800F019F9002803D0802105
:100DD000014800F091F810BD002C014070B50121D0
:100DE000294800F00BF900284CD00121264800F0DA
:100DF00083F800F05FFE00F07FFF44B2002C01D1C9
:100E0000012001E00020C04304462048007800286B
:100E100018D01E480078012802D100201B49087014
:100E20001B490020085EFFF789FB05461949002091
:100E3000085EFFF783FB06462946FFF785FA164949
:100E4000086002E00020144908604B210901614359
:100E50000846FFF773FB06460F480168304601F06D
:100E6000E7F90546FFF720FB0C4948600846406853
:100E70000B49886000F08CFE0948806808490862C8
:100E800000F05AFE70BD0000000400400800002081
:100E90000A0000200E000020040000209C0000201A
:100EA000B0000020002904D0026880231A430260A9
:100EB00003E00268014B1A40026070477FFF0000A8
:100EC0000A884B881A438B881A43CB881A430B89AC
:100ED0001A434B891A438B891A4342647047002195
:100EE000018041808180C180018141818181704781
:100EF000CA4392B202617047CA4302617047000060
:100F0000002904D0026801231A43026003E002684A
:100F1000014B1A4002607047FEFF000010B5044606
:100F20002B48844208D10121C014FFF731FD002174
:100F3000E014FFF72DFD4AE001208007844208D12C
:100F400001210846FFF704FD00210120FFF700FD05
:100F50003DE02048844208D101210220FFF7F8FC3F
:100F600000210220FFF7F4FC31E01B48844208D145
:100F700001214014FFF70CFD00216014FFF708FD6C
:100F800025E01648844209D101210804FFF7E0FC5E
:100F9000002101200004FFF7DBFC18E01048844228
:100FA00009D101214804FFF7F3FC0021012040048E
:100FB000FFF7EEFC0BE00B48844208D101218804C6
:100FC000FFF7E6FC002101208004FFF7E1FC10BDE3
:100FD000002C014000040040000801400040014096
:100FE00000440140004801400246002013690B40C4
:100FF000002B01D0012000E00020704730B50246F0
:1010000000200023002415690D402B46D5680D40B3
:101010002C46002B03D0002C01D0012000E0002042
:1010200030BD002101804180012181800021C180EB
:1010300001817047002A03D0C3680B43C36002E0FC
:10104000C3688B43C360704770B50024002200233F
:10105000056A1D4E35400562056AAAB24568ABB205
:101060008569ACB2184D6F3D2C40B51E2C400D88E3
:101070002C43751E2A400D892A434D882A43134D5F
:10108000A84208D0124DA84205D0124DA84202D065
:10109000114DA84212D10C4DED1F2A404D892A4313
:1010A000094DED1E2A408D882A43074DFF3D2B40F8
:1010B0000A4D2B408D892B43CD892B43436084619E
:1010C000CD884563026270BDFEFF0000002C014028
:1010D000004401400048014000080140FFFD0000BD
:1010E0000A460021836999B2034B19400B4613430A
:1010F0001946816170470000F7FF000070B50024B9
:1011000000220023056A244E35400562056AAAB212
:101110004568ABB28569ACB2204D2C40204D2C40C7
:101120000D782D062D0C2C431B4D103D2A400D89AA
:101130002D052D0C2A434D882D052D0C2A43194DC4
:10114000A84202D0184DA8421FD1184D2B408D89BE
:10115000AD042D0C2B43134DA84202D0124DA842D2
:1011600013D10D4D703D2A404D892D052D0C2A437C
:10117000094D303D2A408D882D052D0C2A430C4DFC
:101180002B40CD89AD042D0C2B4343608461CD8869
:101190008563026270BD0000EFFF0000FF8F00005A
:1011A000FFFC0000002C014000080140FFFB000094
:1011B000FFF700000A460021836999B2034B1940EA
:1011C00013061B0C1943816170470000FFF70000F4
:1011D00070B5002400220023056A1F4E35400562C9
:1011E000056AAAB24568ABB2C569ACB21A4D903572
:1011F0002C40194DFD352C400D882C43174D2A40AD
:101200000D7A2D062D0C2A438D782D062D0C2A43A0
:10121000134DA84202D0134DA84217D1124D2A40B7
:101220008D7A2D062D0C2A43104D2A400D792D065E
:101230002D0C2A430E4D2B400E4D2B408D892D0534
:101240002D0C2B43CD892D052D0C2B434360C46100
:10125000CD88C563026270BDFFFE0000FFFD000087
:10126000002C014000080140FFF70000FFFB0000D8
:10127000FFEF0000FFDF00000A460021C36999B2BA
:10128000034B19400B4613431946C16170470000D8
:10129000F7FF000070B5002300220024056A164EF7
:1012A00035400562056AAAB24568ACB2C569ABB201
:1012B000124D2B40124D2B400D782D062D0C2B433B
:1012C000104D2A400D7A2D072D0C2A438D782D07BD
:1012D0002D0C2A430C4DA84202D00C4DA84205D13A
:1012E0000B4D2C408D89AD052D0C2C434460C36102
:1012F000CD880564026270BDFFEF0000FF8F000023
:10130000FFFC0000FFDF0000002C0140000801404E
:10131000FFBF00000A460021C36999B2034B194080
:1013200013061B0C1943C16170470000FFF7000052
:101330000021018041808180C180018141818181C2
:10134000C1817047F8B505460C4600260127608824
:10135000002801D1022600E00026A088012801D142
:10136000022700E001272088002814D12389A288C1
:1013700061882846FFF76CFCE188284600F020F8D9
:1013800023893A4631462846FFF780FCE188284603
:1013900000F020F813E02389A28861882846FFF72F
:1013A00075FCE188284600F015F823893A46314655
:1013B0002846FFF74DFCE188284600F001F8F8BD0B
:1013C0008269034B1A40826182690A4382617047D5
:1013D000F3FF00008269044B1A40826182690B06A8
:1013E0001B0C1A4382617047FFF300000022036860
:1013F0009AB2164B984209D001239B07984205D018
:10140000134B984202D0134B984204D1124B1A400E
:101410008B8813439AB2114B1A408B8913439AB2AB
:1014200002608B68C3620B688362084B984208D0E5
:10143000084B984205D00A4B984202D0094B98427B
:1014400001D10B7C0363012343617047002C0140F1
:1014500000040040000801408FFF0000FFFC000076
:1014600000440140004801400349816000210160BF
:10147000C160416001747047FFFF0000002904D083
:10148000826901231A43826103E08269014B1A4099
:1014900082617047FEFF0000F0B587B004460D463C
:1014A000002600200690059000272746E669FF21C8
:1014B000D031304688430646A888E9880843298900
:1014C00008430643E661A66976097601A889698919
:1014D00008430643A66101A8FFF76AFA0C48874251
:1014E00002D10398069001E00498069029680698B6
:1014F000FEF77AFE060929680698FEF775FE0007D2
:10150000000F059026620598606207B0F0BD0000EC
:10151000004400404B21C90101603021818000213D
:10152000C18001811821418100218181704730B43F
:101530007446641E2578641CAB4204D3635D5B0073
:10154000E31830BC18471D46F8E7000000B589B025
:10155000012103204002FFF70BFA01214804FFF7A5
:10156000D7F901218804FFF7D3F94821684601849F
:10157000002108A8C17008A90920C006FFF7DAF801
:10158000384968460184002108A8C17008A9364876
:10159000FFF7D0F802A8FFF791F800200290302062
:1015A0000390012040020490002007900120800455
:1015B000069002A92D48FFF745F801212B48FFF7B7
:1015C0001FF80123002203212848FFF753F80123C5
:1015D0001A4606212548FFF74DF80123022207216C
:1015E0002248FFF747F8012303220A211F48FFF78B
:1015F00041F8012304220B211C48FFF73BF800208F
:1016000002903020039001204002049000200790B7
:1016100001208004069002A91548FFF713F8012164
:101620001348FEF7EDFF0123002219461048FFF78B
:1016300021F801210E48FEF7EFFF012211460B4869
:10164000FEF7F6FF01210948FEF7E6FF0C21684688
:10165000017101214171817101A8FFF711F909B0F0
:1016600000BD000004840000000400480024014084
:10167000002801400B48406A0B4988800948006BEC
:1016800048800A48C069810040188001000C064962
:101690000880044840300068C880024840304068F4
:1016A000088170470024014090000020002801407C
:1016B0004B20000104494861044808600448486020
:1016C00000200862C8607047B00000206F12833AA3
:1016D000ACC5273708B501214804FFF719F90721E0
:1016E000684601804821C17069460920C006FFF79D
:1016F00021F800F085FB08BD10B5174800780028D8
:1017000009D1012000F02EF8012000F037F8012067
:1017100000F090F81EE0002000F024F880210F482F
:10172000FFF762FC002807D080210C48FFF7E4FB9C
:10173000002000F023F802E0012000F01FF8084824
:101740008068002803D0002000F074F802E0012037
:1017500000F070F810BD00009C000020002C01403B
:101760005401002010B504462246012149030248D5
:10177000FFF780F810BD00000004004810B50446D3
:101780002246012189030248FFF774F810BD0000CA
:101790000008004808B501210F204004FFF7B8F801
:1017A0000121C90368460180012181701021C170A7
:1017B00069461E48FEF7BEFF012189036846018085
:1017C000012181701021C17069461848FEF7B2FFEF
:1017D0000121490368460180012181701021C170F7
:1017E00069461348FEF7A6FF0121C9030F48FFF71A
:1017F0003FF8012189030D48FFF73AF80121490319
:101800000B48FFF735F801210903684601800121E3
:1018100081701021C17069460448FEF78BFF0121D9
:1018200009030248FFF724F808BD0000000800483B
:101830000004004810B5044622460121C9030248AD
:10184000FFF718F810BD000000080048FFF7A2FFDE
:1018500000F024FAFFF77AFE0C4800F001FAFFF7D7
:1018600039FFFFF725FF00F0A9F900F037F900F084
:101870004BFA09214B20000100F08AFB04495F204C
:1018800000F060FC01E0FFF737FFFCE7D400002028
:10189000E703000010B50D48006A0D4908400B49E8
:1018A000086240210B48FEF7E3FF10210948FEF7CC
:1018B000DFFF0121C9030920C006FEF7D9FF002080
:1018C000024948638863C86310BD0000002C0140D2
:1018D000EEFE00000004004810B50446654880682C
:1018E000002806D164484078002802D0FFF7D2FFD4
:1018F000BEE061480078002802D1FFF7CBFFB7E0D7
:101900002300FFF714FE07A705203B56718CA700A4
:1019100040215A48FEF7AAFF10215848FEF7A6FFBB
:101920005748006A57490840554908620846006A06
:1019300010210843524908620121C9030920C00649
:10194000FEF796FF93E040214C48FEF78FFF012100
:10195000C9030920C006FEF789FF4948006A4949C2
:101960000840474908620846006A01210843444983
:10197000086210214148FEF77BFF78E040213F4894
:10198000FEF774FF10213D48FEF770FF3C48006AE7
:101990003C4908403A4908620846006A0121084368
:1019A000374908620121C9030920C006FEF760FF1C
:1019B0005DE010213148FEF759FF0121C9030920DC
:1019C000C006FEF753FF2E48006A2E4908402C49F6
:1019D00008620846006A89150843294908624021BF
:1019E0002648FEF745FF42E010212448FEF73EFF5F
:1019F0000121C9030920C006FEF738FF2048006A0C
:101A0000204908401E4908620846006A1021084320
:101A10001B49086240211948FEF72AFF27E04021B0
:101A20001648FEF723FF0121C9030920C006FEF76F
:101A30001DFF1348006A134908401149086208460F
:101A4000006A891508430E49086210210B48FEF709
:101A50000FFF0CE00A48006A0B4908400849086279
:101A60000846006A074908400549086200BF00BFF0
:101A700010BD0000B00000209C00002000040048C1
:101A8000002C0140EEFE0000BBFB000010B5034837
:101A9000827804210248FEF7EDFE10BD9C00002074
:101AA000000C0048024948638863C863704700001F
:101AB000002C014010B5012189030648FEF7CCFE39
:101AC000002803D000200449087002E001200249E8
:101AD000087010BD000400489C00002008B50121DA
:101AE00005208004FEF714FF0121090368460180E8
:101AF000032181701021C17069460920C006FEF7DC
:101B000019FE042168460180032181701021C170F3
:101B100069460748FEF70EFE0121890368460180E9
:101B20002821C17069460348FEF704FE08BD000085
:101B3000000C00480004004810B51348008C04B2A3
:101B400012488078002803D1002C07DA002405E031
:101B5000002C02DC604204B200E000240A488068E5
:101B6000002806D109484078002802D0FFF792FEED
:101B700009E006480078002802D1FFF78BFE02E05A
:101B8000A0B2FFF78FFF10BDB00000209C00002026
:101B900010B508488068002809D100F0ADF8002889
:101BA00002D10549887002E0012003498870FFF7DF
:101BB0006DFF10BD540100209C000020012003494E
:101BC0004870002088704860704700009C0000202A
:101BD00010B509480078002801D1012000E000205C
:101BE0000549087008460278012109030920C0064A
:101BF000FEF740FE10BD00001000002070B5054645
:101C00000C46164840680119144880380078820054
:101C100012487C388058091A104841600246803AC0
:101C2000517802465068FEF7E9FA0C498860084688
:101C300080380078810009487C384450001F0078C3
:101C4000401C064980390870084640780978884267
:101C500003DC002001498039087070BD5401002068
:101C600010B5014600230C4A9360536000220A4BD2
:101C7000803B1A7020225A70002006E00023840066
:101C8000054A7C3A1351421CD0B2034A803A52783A
:101C90008242F3DC10BD00005401002008B5012190
:101CA00003204004FEF734FE1149684601800021FC
:101CB000C17069460F48FEF73DFD3021684601803E
:101CC0000021C17069460920C006FEF733FD0121DD
:101CD000C803FEF74DFE01210846FEF709FE01216B
:101CE0000802FEF705FE01210804FEF701FE08BD0B
:101CF000031800000004004810B501214902092022
:101D0000C006FEF7A9FD10BD00B58BB00121480447
:101D1000FEF7FEFD06220A210920C006FEF779FD26
:101D20000121890268460185282108A8C1720AA9F3
:101D30000920C006FEF7FEFC012149026846018524
:101D4000282108A8C1720AA90920C006FEF7F2FCE2
:101D5000152108A80171002141710121817109A893
:101D6000FEF78EFD01214804FEF702FE04A8FFF7EE
:101D70007BFB1F4806901F491F480068FEF734FA96
:101D8000401E049000200790002108A80170002048
:101D9000059004A91948FFF729FB01A8FFF741F9AD
:101DA0000021684681800A21C18001210181002132
:101DB00041810221818101A91048FFF7C3FA012264
:101DC00002210E48FFF736F9012211460B48FFF7B2
:101DD00031F902210948FFF78FF801210748FFF781
:101DE0008BF801210548FFF78BF80BB000BD000010
:101DF000204E000040420F007C00002000440140C3
:101E000070B501210920C006FEF726FD0446022117
:101E10000920C006FEF720FD054604210920C00662
:101E2000FEF71AFD0646A000690040188019014916
:101E3000087070BD1400002070B5FFF7E1FF454841
:101E40000088401C4349088008460088424988426F
:101E50000CDB08463F49088040490880488088805C
:101E6000C880088148813E48FFF7FAFE3D48007867
:101E70003D49097888426CD03C480068002868D108
:101E80003B480078401C3A4908700846007806280C
:101E900001DB002008702F48008835490978490087
:101EA0002E4A505200202B49088000BF314908605B
:101EB000002509E068002949085A2E490968401898
:101EC0002C490860681CC5B2062DF3DB294801685F
:101ED0002948FEF789F9044628488078012800D16E
:101EE000644221461E48FFF789FE00BFFFF770FEDF
:101EF0001B48803080687D214901884205DC1848F4
:101F0000803080684942884212DA1C488078C000DC
:101F10001B49401813490978405C1A4908701A484F
:101F20000088144909684843C009104908600CE05A
:101F300012488078C000154940180A490978405C69
:101F400010490870002009490860064800780649D1
:101F5000087070BD60000020881300005000002051
:101F6000D400002014000020150000206400002090
:101F70004F0000205C000020009F24009C000020F7
:101F80002F0000201600002068000020170000200D
:101F900030B58FB004460D460121C802FEF7E8FCBB
:101FA000012103204004FEF7B3FC0121C902684669
:101FB0000187282108A8C1760EA90920C006FEF7CE
:101FC000B9FB06220B210920C006FEF722FCA8213E
:101FD00068460187032108A881761821C1760EA9D9
:101FE0005648FEF7A7FB072211465448FEF711FC9E
:101FF000072205215148FEF70CFC072203214F4818
:10200000FEF707FC0121C90368460187102108A8D3
:10201000C176032181760EA90920C006FEF78AFB4E
:10202000502168460187102108A8C17603218176D6
:102030000EA94248FEF77EFB4148FEF76FFF09A854
:10204000FFF712FA0B940020099020200A9000203C
:102050000C90012108A8017509A93948FFF7C6F9B4
:1020600005A8FFF765F96021684681820121C182D8
:102070000421018300218183C18301844184418340
:1020800005A92F48FEF7E0FF00216846418305A916
:102090002B48FFF733F800216846418305A92848FB
:1020A000FFF796F801216846418305A92448FFF708
:1020B000F1F800212248FFF713F800212048FFF72C
:1020C00079F800211E48FFF7D7F800211C48FFF7D8
:1020D00021F900201A49886201A8FEF700FF0021BB
:1020E00068468180C1800121490201814581C90082
:1020F00081814900C1814900018201A91048FEF790
:10210000DFFE01210E48FEF7CDFE002280210C48A3
:10211000FEF790FF002201210948FEF78BFF0D21F9
:1021200068460170012141708170FEF7A9FB012111
:102130000348FEF7E5FE0FB030BD00000004004884
:10214000002C014030B587B004460D460121022025
:10215000FEF7EEFB02A8FFF787F904950294002032
:102160000590039000216846017602A90D48FFF70B
:102170003DF91021684601710221417101218171EF
:1021800001A8FEF77DFB01210648FEF7B1FE012202
:1021900011460448FEF74EFF01210248FEF7B0FE4B
:1021A00007B030BD0004004010B586B004460121E0
:1021B0000805FEF7ADFB032200211B48FEF729FBB3
:1021C000032201211848FEF724FB01216846818281
:1021D000032181751821C17505A91348FEF7AAFAD4
:1021E0000221684681824821C17505A90E48FEF783
:1021F000A1FA01218803FEF7BBFB01A8FFF78AF9CA
:102200000194302168460181002141818181018250
:102210001821C18101A90548FFF73EF901210348B2
:10222000FFF72CF906B010BD000C00480038014043
:1022300070B5420064414B005C41120E39D01B0E58
:1022400038D0FF2A3CD0FF2B3AD040024902400A46
:10225000490A060045184E43000A090AD2184843A5
:10226000ED017F3A0104731A4019190C4318990FB4
:1022700004D001215B0849075B1A521CD80904D31A
:10228000401CF50301D19D0607D0FF2A08D2D505D1
:1022900006D0E4072043401970BD0125A843F4E7A8
:1022A000002A01DCE00770BD2402FF202043C005A6
:1022B00070BD1B0EFF2A03D0FF2B01D0E00770BDBD
:1022C000FF2645003606B54206D84D00B54203D874
:1022D000D218FF2A00D0E7E7004870BD0000C07F99
:1022E0008182838485868788898B8C8D8E8F91925D
:1022F00093959697999A9C9D9FA0A2A3A5A7A8AAFB
:10230000ACAEB0B2B3B5B7B9BCBEC0C2C5C7C9CC1C
:10231000CED1D4D7D9DCDFE2E6E9ECF0F3F7FAFE70
:10232000402300080000002090000000F800000892
:10233000D02300089000002030070000140100089E
:10234000000000000000000000000000000000008D
:102350000000000000000000030602050104000068
:102360000503010604020000000000000000000058
:102370000204060103050000040105020603000033
:102380000000000000000000010203040506000038
:10239000881388138813881388138813000000009B
:1023A00088130000881300000600000000000102EE
:1023B00003040102030406070809000000D8B80559
:1023C00000000000000000000102030406070809E5
:04000005080000B53A
:00000001FF
